:1000000008308A00002800000A108A100A118207AE
:1000100028340C3401340634D6224E2A41104126AD
:10002000C9264527D4275310000020102021C922BB
:100030004E2B452749224F10201000400C000C0089
:10004000C32750102410253300000C00CE27202693
:1000500045104126C3204E2D4100D020D220A022A1
:100060004C1050294F22D521D42700010C00C82064
:10007000A021CF26502941224F000C00C12A4E104A
:10008000CE27A024CE23D222D3200001C424CE2206
:10009000D2270000CA3084008313000803195E28A9
:1000A0000130F800F701F70B5328F80B52284A30BB
:1000B000F700F70B59285C28800B5028080083169E
:1000C000510EF039F7000F308312080577048800CD
:1000D000000008146B28081008000808F700080E34
:1000E0000F39F800080088100F3083160805F03823
:1000F0008800831208150000081400006D2078089D
:100100008316D100831208100000081400006D202F
:1001100078088316D000831208100F308316080564
:100120008800510EF700F030F70577085004F8000A
:100130007808D000D01F9E28831274284E18A32858
:100140008312881083164E1CA828831288148316E5
:100150000000831208110000081083164F0ED00013
:100160000F30D0055008D10083125F2083164F084E
:100170000F39D000D10083125F2008000F308316A2
:1001800008058800081088100811831288100811CB
:1001900008100F308316CA0083124A2001308316DC
:1001A000B1003108033C031CE1280330D100831265
:1001B0005F2005308316CA0083124A208316B10AD5
:1001C000D1280230D10083125F208316B10131089B
:1001D000033C031CF8283108831204208316B20064
:1001E000CE013208CF00831273208316B10AE728AC
:1001F00083128A150A12922883163708BE003B081C
:10020000BE06BE1F082903110310B71B03143B29A8
:100210003708BE003A08BF003608BF020319162986
:10022000BE1F3B290308013A83003B293B08BF005E
:100230003708BF0203192229BE1F3B290308013AD0
:1002400083003B293C08BF003808BF0203192E2950
:10025000BE1F3B290308013A83003B293D08BF002C
:100260003908BF0203193A29BE1F3B290308013A86
:1002700083003B2903108312080083164B0B41298E
:1002800044294030CC004529CC0101304A02CC073A
:100290004C088038CD00CE014D08CF00831273206A
:1002A0000800831649080C3A831203195E29063A9E
:1002B00003196A29023A0319722979298316CE0192
:1002C0000130CF008312732002308316CA008312DC
:1002D0004A20812901308316CA000230CB008312E4
:1002E0003D2181298316CE011030CF008312732067
:1002F000812901308316CE004908CF008312732074
:1003000081290800831603178C170C1400000000C5
:1003100083120C087F390319DA2983160313BC00F2
:10032000831203170D0883160313BD0083120317EE
:100330000F0883160313BE003C08C9008312512125
:1003400083163D08831203178D00831603133E089E
:10035000831203178F0083168C170C140000000003
:1003600083120C0D0E0D7F390319DA29831603133E
:10037000BC00831203170D0883160313BD008312FC
:1003800003170F0883160313BE003C08C90083122D
:10039000512183163D08831203178D008316031322
:1003A0003E08831203178F008D0A03198F0A031367
:1003B00082290317031308006D088316B9008312FE
:1003C0006C088316B80083126B088316B70083127B
:1003D0006A088316B600BD01BC01BB01BA018312D5
:1003E000FC20031D1F2A8316310B1A2A3D3083126D
:1003F00003178D0000308F00031382210130831614
:10040000CA00CB0083123D213E3003178D0000301F
:100410008F000313822101308316CA000230CB0003
:1004200083123D21463003178D0000308F000313E7
:10043000822183160030F800232A232A83120130F8
:10044000F8008316232A8312080080080319412A22
:100450008316BD010408BC003D10831B3D14000839
:10046000C9008312512183163C08840083133D1870
:100470008317840A031D3F2A8312850A8316831279
:10048000252A0800F701F801F901FA018316D101C4
:10049000D201D301D40150084F044E044D04031976
:1004A000812A2030D5000310C90DCA0DCB0DCC0D0B
:1004B000D10DD20DD30DD40D50085402031D6A2A5C
:1004C0004F085302031D6A2A4E085202031D6A2A6E
:1004D0004D085102031C7B2A4D08D1024E08031C13
:1004E0004E0FD2024F08031C4F0FD3025008031CBB
:1004F000500FD4020314F70DF80DF90DFA0DD50BBA
:10050000532AD13084008313831208000408831611
:10051000C1004008C3000319192B3F08CC003E0856
:10052000CB003D08CA003C08C900D001CF012030F3
:10053000CE008230CD00490803190B2BD1004D08A5
:1005400003190B2BD1070318AC2A7F30D102031CEF
:100550000B2B03190B2BB02A8130D10703180B2B5F
:100560005108F700F801F901FA014A08D500D5173A
:100570004B08D4004C08D3001830D100D201531CD2
:10058000D92A5008FA07031CCB2AF90A031DCB2AE3
:10059000F80A0319D2174F08F907031CD22AF80AE0
:1005A0000319D2174E08CB00CB174B08F8070318D6
:1005B000D217D20DF80CF90CFA0CD50CD40CD30CC4
:1005C0000310D10BBE2A0130F70703180B2BF81BC1
:1005D000F02AD50DFA0DF90DF80DF70303190B2BC1
:1005E000D51F012BFA0A031D012BF90A031D012B4C
:1005F000F80A031D012BF80CF90CFA0CF70A031981
:100600000B2B4A08D2004E08D206D21F092BF8172E
:100610000F2BF8130F2BF701F801F901FA017A08F3
:10062000BF007908BE007808BD007708BC00C30B86
:100630008D2A3F08CC003E08CB003D08CA003C088C
:10064000C9004908B63CC900FA014A08CD00CA17DA
:100650000310CA0CCB0CCC0CFA0CF90CF80CF70CF0
:10066000C90B282BCD1F3F2BF709F809F909FA0907
:10067000F70A0319F80A0319F90A0319FA0A7A089A
:10068000BF007908BE007808BD007708BC00BF1F16
:10069000562BC103C116BC09BD09BE09BF09BC0A5E
:1006A0000319BD0A0319BE0A0319BF0A3B30C8006B
:1006B0009A30C700CA30C600C5010A30C3004008DE
:1006C0000319C10A3F08CC003E08CB003D08CA0010
:1006D0003C08C9004808D0004708CF004608CE00B3
:1006E0004508CD008312422200088316BC00840A0C
:1006F0000008BD00840A0008BE00840A0008BF008C
:10070000FD308407F708031D982B400A43020319A4
:10071000982B410803199A2B0F3943020319922B86
:100720000318D22BC11BD22B411B9A2B2030CC2B70
:100730002030C105C11EAA2BC1124008031DC103F0
:100740007708C1002D30C90083125121831641085A
:10075000F700C10140084302031DBA2B7708C1000E
:100760002E30C9008312512183164108F700203032
:10077000C10500303030C11ECC2BC1124008031D12
:10078000C1037708C1002D30C9008312512183169F
:100790004108F700C1013030F7077708C90083121C
:1007A000512183164808CC004708CB004608CA00F0
:1007B0004508C900D001CF01CE010A30CD00831217
:1007C00042227A088316C8007908C7007808C60054
:1007D0007708C500C30B622B83128A110A12822C80
:1007E0001F3003178D0000308F000313822101306A
:1007F0008316CA00CB0083123D218316360884007D
:100800008313371883178312252201308316CA00F9
:100810000230CB0083123D21203003178D000030C1
:100820008F000310063083160313BC0003178C17C8
:100830000C140000000003184B2C83120C087F39A5
:1008400083160313BD00831203170D0883160313C9
:10085000BE00831203170F0883160313BF003D0861
:10086000C9008312512183163E08831203178D009D
:10087000831603133F08831203178F0083168C1708
:100880000C14000000000313BC0B472C492C031769
:100890004B2C742C031783120C0D0E0D7F3983160D
:1008A0000313BD00831203170D0883160313BE0044
:1008B000831203170F0883160313BF003D08C900F6
:1008C0008312512183163E08831203178D0083166D
:1008D00003133F08831203178F008D0A03198F0A31
:1008E00083160313BC0B162C893084003B08BF0011
:1008F0003A08BE003908BD003808BC000230C0000C
:100900008312862A08008030831C892C8316BB063C
:1009100083128316C001C1013708BF003B08BF0620
:1009200036080319772DBE00F7003A080319802D09
:10093000BE0203191C2D031CDA2C3B08C400C4178B
:100940003C08C3003D08C200C1010310C40CC30C25
:10095000C20CC10CBE0BA42CBF1FB12C4014942D93
:1009600040103E104016B93084008313A92D401268
:10097000BF1BC42C3E1CCF2CC40CC30CC20CC10C1E
:10098000F70A03198F2DCF2CC41BD22C0310C10DD5
:10099000C20DC30DC40DF70303198F2DC42C4017CE
:1009A0003C2D40133708BF00BF1FD82CC417882D1B
:1009B000C413882D3A08BE00F7003608BE02370877
:1009C000C400C4173808C3003908C200C1010310AD
:1009D000C40CC30CC20CC10CBE0BE62CBF1FF32C05
:1009E000C014942DC0103E10C016BD308400831377
:1009F000A92DC012BF1B062D3E1C112DC40CC30C0B
:100A0000C20CC10CF70A03198F2D112DC41B142D14
:100A10000310C10DC20DC30DC40DF70303198F2DB3
:100A2000062DC0173C2DC0133B08BF00BF1F1A2D59
:100A3000C417882DC413882D3B08C400C4173C0874
:100A4000C3003D08C200BF1F292DC4134015942DBB
:100A50004011C1013E10B93084008313A92DBF1B82
:100A6000522D3708BF003E1C3C2DC40CC30CC20CD9
:100A7000C10CF70A03198F2DC11F4D2DC20A031D8A
:100A80004D2DC30A031D4D2DC40A031D4D2DC40C4D
:100A9000C30CC20CF70A03198F2D401BD12CC01BAD
:100AA000132D712D8030C406C41F5A2D942D3B0880
:100AB000BF00672D3708BF00C408031D672DC3089A
:100AC000031D672DC208031D672DF701882DC41B68
:100AD000712D0310C10DC20DC30DC40DF70B672D91
:100AE0008F2DBF1F752DC417882DC413882D3A086C
:100AF000F7003B08C4003C08C3003D08C200882D35
:100B00003608F7003708C4003808C3003908C200A7
:100B10004408F8004308F9004208FA00C72DF7011D
:100B2000F801F901FA01C72DC101C209C309C409BD
:100B3000C109C10A031DA22DC20A031DA22DC30AA9
:100B40000319C40A4018B02CC018F22C4019282DE3
:100B5000572D0008C207031CB32DC30A031DB32D74
:100B6000C40A03193E1484030008C307031CBB2DE9
:100B7000C40A03193E1484030008801F803AC40786
:100B800003183E14401AB72CC01AF92C2F2D8312CB
:100B9000080083146D088316B90083126C0883164D
:100BA000B80083126B088316B70083126A08831695
:100BB000B6003508BD003408BC003308BB0032085D
:100BC000BA00831283247A08F1007908F0007808CB
:100BD000EF007708EE0071088316B9007008B800BE
:100BE00083126F088316B70083126E088316B6004F
:100BF000BD01BC01BB01BA018312FC20031C232EE2
:100C0000253003178D0000308F000313822101303F
:100C10008316CA00CB0083123D21263003178D00B6
:100C200000308F000313822101308316CA00023086
:100C3000CB0083123D212D3003178D0000308F0033
:100C4000031382219D2EED01EC01EB01EA01363008
:100C500003178D0000308F000313822101308316AB
:100C6000CA00CB0083123D21373003178D000030BE
:100C70008F000313822183163108FC3E0318782E5F
:100C8000043E83129E2E01308316CA000230CB0030
:100C900083123D213A308400831325228316782E57
:100CA00001308316CA000230CB0083123D214A3046
:100CB0008400831325228316782E01308316CA0000
:100CC0000230CB0083123D215A3084008313252249
:100CD0008316782E01308316CA000230CB008312AF
:100CE0003D21A0308400831325228316782E83169D
:100CF0000C30B600FA30CA0083124A208316B60BB5
:100D00007A2EB7012F30B6007108BB007008BA0008
:100D100083126F088316B90083126E088316B80019
:100D20008312F0230C308316B600FA30CA00831207
:100D30004A208316B60B952E831208000A108A14D7
:0C0D40000A158207432E502E5D2E6A2EED
:10100000840183131F308305ED01EC01EB01EA013C
:10101000F101F001EF01EE0183161F149F141F155B
:101020009F1107309C0048308312A0004130A1007E
:101030002030A2004930A3004E30A4005430A50057
:101040005230A6004F30A7004430A8005530A90008
:101050004330AA004930AB004430AC004F30AD0003
:10106000AE014430AF004530B0005630B1004F30D3
:10107000B2004C30B3005530B4004330B5004930B5
:10108000B6004F30B7004E30B800B9014330BA0057
:101090004F30BB004330BC004130BD002D30BE009E
:1010A0004330BF004F30C0004C30C1004130C2005F
:1010B000C3015230CA004930CB005A30CC00413015
:1010C000CD004430CE004130CF005330D000D101AC
:1010D0005930DA005530DB005030DC004930DD009B
:1010E0005330DE00DF0143308316A0004830A100FA
:1010F0004F30A2004330A3004F30A4004C30A50075
:101100004130A6005430A7004930A8004E30A90055
:101110004130AA005330AB00AC01003088008A1186
:101120008312BE288A158316B1018A118312DC212D
:101130008A15F808031DC02801308316CA00CB00A9
:101140008A1183123D218A150C3003178D0000305F
:101150008F008A11031382218A1501308316CA0079
:101160000230CB008A1183123D218A1515300317F6
:101170008D0000308F008A11031382218A15D82830
:101180008316B7012030B60083126D088316BB00AA
:1011900083126C088316BA0083126B088316B90099
:1011A00083126A088316B8008A118312F0238A1505
:1011B000831606148312061CFF2883106D088316FD
:1011C000B90083126C088316B80083126B0883166B
:1011D000B70083126A088316B600BD01BC0148300F
:1011E000BB008530BA008A11831283248A157A08DD
:1011F000ED007908EC007808EB007708EA00831628
:1012000086148312861C262983106D088316B90064
:1012100083126C088316B80083126B088316B7001C
:1012200083126A088316B600BD01BC014830BB00BA
:101230008630BA008A11831283248A157A08ED0059
:101240007908EC007808EB007708EA0083160615A9
:101250008312061D4D2983106D088316B900831271
:101260006C088316B80083126B088316B7008312CC
:101270006A088316B600BD01BC017A30BB00873016
:10128000BA008A11831283248A157A08ED0079083E
:10129000EC007808EB007708EA00831686158312C5
:1012A000861D742983106D088316B90083126C089B
:1012B0008316B80083126B088316B70083126A087E
:1012C0008316B600BD01BC017A30BB008830BA007D
:1012D0008A11831283248A157A08ED007908EC00BC
:1012E0007808EB007708EA00831685148312851CC2
:1012F0009E2901308316B1008A118312DC218A15E0
:10130000780B9E298316B7013A30B600BB018030B6
:10131000BA005430B9008930B8008A118312F02322
:101320008A158316B101B5018030B4005430B30082
:101330008930B2008A118312C9258A1583160515D2
:101340008312051DC92901308316B1008A11831249
:10135000DC218A15780BC9298316B7014A30B600FB
:10136000BB018030BA003B30B9008930B8008A1127
:101370008312F0238A1501308316B100B501803045
:10138000B4003B30B3008930B2008A118312C92502
:101390008A15831685158312851DF429013083165D
:1013A000B1008A118312DC218A15780BF429831687
:1013B000B7015A30B600BB018030BA002230B90004
:1013C0008930B8008A118312F0238A1502308316FF
:1013D000B100B5018030B4002230B3008930B200D2
:1013E0008A118312C9258A15831605168312051ED4
:1013F0001D2A01308316B1008A118312DC218A155F
:10140000780B1D2A8316B701A030B600BB01BA01C4
:101410007A30B9008730B8008A118312F0238A1518
:1014200003308316B100B501B4017A30B3008730C0
:10143000B2008A118312C9258A1504308316B100BF
:10144000FA30CA008A1183124A208A158316B10B1A
:10145000202A1E30831203178D0000308F008A115E
:0A146000031382218A15932863000C
:02400E00723FFF
:00000001FF
;PIC16F877A
;CRC=6C78  CREATED="03-nov-18 23:17"
